{
  "contractName": "Banker",
  "abi": [
    {
      "inputs": [],
      "payable": false,
      "stateMutability": "nonpayable",
      "type": "constructor"
    },
    {
      "constant": false,
      "inputs": [
        {
          "name": "depositAmount",
          "type": "uint256"
        }
      ],
      "name": "deposit",
      "outputs": [],
      "payable": false,
      "stateMutability": "nonpayable",
      "type": "function"
    },
    {
      "constant": false,
      "inputs": [
        {
          "name": "withdrawalAmount",
          "type": "uint256"
        }
      ],
      "name": "withdraw",
      "outputs": [
        {
          "name": "sufficient",
          "type": "bool"
        }
      ],
      "payable": false,
      "stateMutability": "nonpayable",
      "type": "function"
    },
    {
      "constant": true,
      "inputs": [],
      "name": "getBalance",
      "outputs": [
        {
          "name": "",
          "type": "uint256"
        }
      ],
      "payable": false,
      "stateMutability": "view",
      "type": "function"
    }
  ],
  "bytecode": "0x608060405234801561001057600080fd5b506127106000803373ffffffffffffffffffffffffffffffffffffffff1673ffffffffffffffffffffffffffffffffffffffff16815260200190815260200160002081905550610261806100656000396000f300608060405260043610610057576000357c0100000000000000000000000000000000000000000000000000000000900463ffffffff16806312065fe01461005c5780632e1a7d4d14610087578063b6b55f25146100cc575b600080fd5b34801561006857600080fd5b506100716100f9565b6040518082815260200191505060405180910390f35b34801561009357600080fd5b506100b26004803603810190808035906020019092919050505061013f565b604051808215151515815260200191505060405180910390f35b3480156100d857600080fd5b506100f7600480360381019080803590602001909291905050506101e6565b005b60008060003373ffffffffffffffffffffffffffffffffffffffff1673ffffffffffffffffffffffffffffffffffffffff16815260200190815260200160002054905090565b6000816000803373ffffffffffffffffffffffffffffffffffffffff1673ffffffffffffffffffffffffffffffffffffffff16815260200190815260200160002054101561019057600090506101e1565b816000803373ffffffffffffffffffffffffffffffffffffffff1673ffffffffffffffffffffffffffffffffffffffff16815260200190815260200160002060008282540392505081905550600190505b919050565b806000803373ffffffffffffffffffffffffffffffffffffffff1673ffffffffffffffffffffffffffffffffffffffff16815260200190815260200160002060008282540192505081905550505600a165627a7a72305820ca348870bf14d3f291b737ede2f48c2d1737200009d8c0bebdc57246dd456c590029",
  "source": "pragma solidity ^0.4.0;\ncontract Banker {\n    mapping (address => uint256) balances;\n    constructor() public {\n        balances[msg.sender] = 10000;\n    }\n    \n    function deposit(uint256 depositAmount) public {\n        balances[msg.sender] += depositAmount;\n    }\n    \n    function withdraw(uint256 withdrawalAmount) public returns(bool sufficient) {\n        if(balances[msg.sender] < withdrawalAmount) return false;\n        balances[msg.sender] -= withdrawalAmount;\n        return true;\n    }\n    \n    function getBalance() public view returns(uint256){\n        return balances[msg.sender];\n    }\n}",
  "sourcePath": "/Users/klaus/Documents/Blockchain/Assignment2/Banker/contracts/Banker.sol",
  "compiler": {
    "name": "solc",
    "version": "0.4.24+commit.e67f0147.Emscripten.clang"
  },
  "schemaVersion": "2.0.1",
  "updatedAt": "2018-11-07T11:50:40.823Z"
}